:0400000053EF00F0CA
:0E0008002382FACF12F0FBCF13F055ED00F07B
:100018002380D8CF01F0E8CF02F0E0CF03F0FACF89
:1000280004F0FBCF05F0E9CF06F0EACF07F0E1CF07
:1000380008F0E2CF09F0D9CF0AF0DACF0BF0F3CF0E
:100048000CF0F4CF0DF0F6CF0EF0F7CF0FF0F8CF9D
:1000580010F0F5CF11F011C0F5FF10C0F8FF0FC078
:10006800F7FF0EC0F6FF0DC0F4FF0CC0F3FF0BC086
:10007800DAFF0AC0D9FF09C0E2FF08C0E1FF07C0E4
:10008800EAFF06C0E9FF05C0FBFF04C0FAFF03C092
:10009800E0FF02C0E8FF01C0D8FF23901000B3EFD3
:1000A80000F00600E9CF14F0EACF15F0E1CF16F022
:1000B800E2CF17F0D9CF18F0DACF19F0F3CF1AF052
:1000C800F4CF1BF0F6CF1CF0F7CF1DF0F8CF1EF0E1
:1000D800F5CF1FF01FC0F5FF1EC0F8FF1DC0F7FFCA
:1000E8001CC0F6FF1BC0F4FF1AC0F3FF19C0DAFFEB
:1000F80018C0D9FF17C0E2FF16C0E1FF15C0EAFF1C
:1001080014C0E9FF13C0FBFF12C0FAFF23921100CD
:10011800B9EC00F0B8EC00F0949082B003D0206AFB
:10012800202A01D0206A82502018FE0B2018826EE7
:10013800000E226E000E216E22BE06D02250EDE186
:10014800640E215CD8B0E9D7410E206EEE0EE82E81
:10015800FED7202EFCD700D0214A222AEDD72390A3
:0C016800239200018CEF00F01200120046
:020000040020DA
:08000000FFFFFFFFFFFFFFFF00
:020000040030CA
:0E000000000C1F1EFF8381FF0FC00FE00F409A
:00000001FF
